S01600004D6178373278785F4D61747269782E73726563BB
S11300000C943C000C944E000C944E000C944E0046
S11300100C944E000C944E000C944E000C944E0024
S11300200C944E000C944E000C944E000C944E0014
S11300300C944E000C944E000C944E000C944E0004
S11300400C944E000C944E000C944E000C944E00F4
S11300500C944E000C944E000C944E000C944E00E4
S11300600C944E000C944E0000000000003C4281B1
S11300700000003C24E7FF4211241FBECFEFD8E06C
S1130080DEBFCDBF21E0A0E0B1E001C01D92A034ED
S1130090B207E1F70E9481010C9493010C940000D3
S11300A084B1846084B985B1846085B984B1886081
S11300B084B984B1806284B98CB580618CBD8CB5FF
S11300C080648CBD08958FE48093C40088E180939C
S11300D0C10086E08093C20008958EBD0DB407FE72
S11300E0FDCF0895CF93C62F0E946D008C2F0E94E0
S11300F06D00CF910895CF9385B18B7F85B9C0E012
S113010007C08AE00E946D0087E00E946D00CF5F07
S1130110C830B8F385B1846085B985B18B7F85B962
S1130120C0E007C08BE00E946D0087E00E946D0074
S1130130CF5FC830B8F385B1846085B985B18B7F52
S113014085B9C0E007C08CE00E946D0081E00E9488
S11301506D00CF5FC830B8F385B1846085B985B1CF
S11301608B7F85B9C0E007C08FE00E946D0080E0FE
S11301700E946D00CF5FC830B8F385B1846085B943
S1130180CF910895CF93DF93D1E012C085B18B7FD7
S113019085B9C0E007C08D2F0E946D0080E00E94E9
S11301A06D00CF5FC830B8F385B1846085B9DF5F77
S11301B0D93060F3DF91CF91089580E006C0E82F35
S11301C0F0E0E050FF4F10828F5F8034C0F3089559
S11301D090E00BC0292F30E0F901EF5FFE4F408122
S11301E0F901E050FF4F40839F5F9F3398F3809362
S11301F03F0108951F93CF93DF93D0E02EC085B1C4
S11302008B7F85B9C0E005C060E080E00E94720089
S1130210CF5FCD17C8F3ED2FF0E0EE0FFF1FEE0F09
S1130220FF1FEE0FFF1FE10FF11DE150FF4F608133
S1130230812F0E947200C7E005C060E080E00E9448
S11302407200C150DC17C8F385B1846085B91F5FA3
S113025001C011E0193098F2DF5FD830D0F3DF919C
S1130260CF911F910895CF93DF93D82FC0E019C089
S1130270ED2FF0E0EE0FFF1FEE0FFF1FEE0FFF1F3D
S1130280EC0FF11DE859FF4F84910E94E8002FEF15
S11302908FE395E0215080409040E1F700C00000DA
S11302A0CF5FC83028F30E94FA00DF91CF91089500
S11302B080E00E94E8002FEF8FE395E0215080401A
S11302C09040E1F700C000000E94FA000895CF9327
S11302D0DF93C0E0D0E00FC085B18B7F85B9FE010C
S11302E0E059FF4F64918C2F8F5F0E94720085B19B
S11302F0846085B92196C830D10574F3DF91CF911C
S113030008950E9450000E947B000E94C2000E9437
S1130310DD000E9463000E9467010E94580180E092
S10D03200E943301F8CFF894FFCFD8
S9030000FC
