S01100005465747269735F56312E73726563B2
S11300000C9434000C9451000C9451000C94510045
S11300100C9451000C9451000C9451000C94510018
S11300200C9451000C9451000C9451000C94530006
S11300300C9451000C9451000C9451000C945100F8
S11300400C9451000C9451000C9451000C945100E8
S11300500C9451000C9451000C9451000C945100D8
S11300600C9451000C94510011241FBECFEFD8E022
S1130070DEBFCDBF11E0A0E0B1E0E6EFF1E002C0E9
S113008005900D92A030B107D9F722E0A0E0B1E0CD
S113009001C01D92AE39B207E1F70E94F2000C9440
S11300A0F9000C9400001F920F920FB60F921124C6
S11300B08F939F93AF93BF938091160290911702F1
S11300C0A0911802B09119020196A11DB11D80934F
S11300D0160290931702A0931802B0931902BF91CD
S11300E0AF919F918F910F900FBE0F901F90189515
S11300F084B1846084B985B1846085B984B1886031
S113010084B984B1806284B98CB580618CBD8CB5AE
S113011080648CBD08958EBD0DB407FEFDCF089597
S1130120CF9385B18B7F85B9C0E007C08EE00E9474
S11301308B0087E00E948B00CF5FC230B8F385B19B
S1130140846085B985B18B7F85B9C0E007C08BE039
S11301500E948B0087E00E948B00CF5FC230B8F30F
S113016085B1846085B985B18B7F85B9C0E007C04E
S11301708CE00E948B0081E00E948B00CF5FC23034
S1130180B8F385B1846085B985B18B7F85B9C0E04A
S113019007C08FE00E948B0080E00E948B00CF5F3D
S11301A0C230B8F385B1846085B9CF910895CF93F7
S11301B0DF93D1E012C085B18B7F85B9C0E007C061
S11301C08D2F0E948B0080E00E948B00CF5FC23095
S11301D0B8F385B1846085B9DF5FD93060F3DF910E
S11301E0CF9108950E9478000E9490000E94D70049
S10901F0FFCFF894FFCFDD
S9030000FC
