:100000000C9434000C9451000C9451000C94510049
:100010000C9451000C9451000C9451000C9451001C
:100020000C9451000C9451000C9451000C9451000C
:100030000C9451000C9451000C9451000C945100FC
:100040000C9451000C9451000C9451000C945100EC
:100050000C9451000C9451000C9451000C945100DC
:100060000C9451000C94510011241FBECFEFD8E026
:10007000DEBFCDBF11E0A0E0B1E0ECEAF1E002C0EC
:1000800005900D92A030B107D9F721E0A0E0B1E0D2
:1000900001C01D92A030B207E1F70E94CD000C9480
:1000A000D4000C94000084B1846084B985B184606C
:1000B00085B984B1886084B984B1806284B98CB513
:1000C00080618CBD8CB580648CBD08958EBD0DB4EF
:1000D00007FEFDCF0895CF9385B18B7F85B9C0E032
:1000E00007C08EE00E94660087E00E946600CF5F36
:1000F000C230B8F385B1846085B985B18B7F85B98D
:10010000C0E007C08BE00E94660087E00E946600A6
:10011000CF5FC230B8F385B1846085B985B18B7F7C
:1001200085B9C0E007C08CE00E94660081E00E94B3
:100130006600CF5FC230B8F385B1846085B985B100
:100140008B7F85B9C0E007C08FE00E94660080E029
:100150000E946600CF5FC230B8F385B1846085B974
:10016000CF910895CF93DF93D1E012C085B18B7FFB
:1001700085B9C0E007C08D2F0E94660080E00E9414
:100180006600CF5FC230B8F385B1846085B9DF5FA8
:10019000D93060F3DF91CF9108950E9453000E94FF
:0C01A0006B000E94B200FFCFF894FFCF6C
:00000001FF
